{
  "contractName": "ExamList",
  "abi": [
    {
      "inputs": [],
      "stateMutability": "nonpayable",
      "type": "constructor"
    },
    {
      "anonymous": false,
      "inputs": [
        {
          "indexed": true,
          "internalType": "bytes32",
          "name": "role",
          "type": "bytes32"
        },
        {
          "indexed": true,
          "internalType": "bytes32",
          "name": "previousAdminRole",
          "type": "bytes32"
        },
        {
          "indexed": true,
          "internalType": "bytes32",
          "name": "newAdminRole",
          "type": "bytes32"
        }
      ],
      "name": "RoleAdminChanged",
      "type": "event"
    },
    {
      "anonymous": false,
      "inputs": [
        {
          "indexed": true,
          "internalType": "bytes32",
          "name": "role",
          "type": "bytes32"
        },
        {
          "indexed": true,
          "internalType": "address",
          "name": "account",
          "type": "address"
        },
        {
          "indexed": true,
          "internalType": "address",
          "name": "sender",
          "type": "address"
        }
      ],
      "name": "RoleGranted",
      "type": "event"
    },
    {
      "anonymous": false,
      "inputs": [
        {
          "indexed": true,
          "internalType": "bytes32",
          "name": "role",
          "type": "bytes32"
        },
        {
          "indexed": true,
          "internalType": "address",
          "name": "account",
          "type": "address"
        },
        {
          "indexed": true,
          "internalType": "address",
          "name": "sender",
          "type": "address"
        }
      ],
      "name": "RoleRevoked",
      "type": "event"
    },
    {
      "inputs": [],
      "name": "DEFAULT_ADMIN_ROLE",
      "outputs": [
        {
          "internalType": "bytes32",
          "name": "",
          "type": "bytes32"
        }
      ],
      "stateMutability": "view",
      "type": "function",
      "constant": true
    },
    {
      "inputs": [
        {
          "internalType": "bytes32",
          "name": "role",
          "type": "bytes32"
        }
      ],
      "name": "getRoleAdmin",
      "outputs": [
        {
          "internalType": "bytes32",
          "name": "",
          "type": "bytes32"
        }
      ],
      "stateMutability": "view",
      "type": "function",
      "constant": true
    },
    {
      "inputs": [
        {
          "internalType": "bytes32",
          "name": "role",
          "type": "bytes32"
        },
        {
          "internalType": "address",
          "name": "account",
          "type": "address"
        }
      ],
      "name": "grantRole",
      "outputs": [],
      "stateMutability": "nonpayable",
      "type": "function"
    },
    {
      "inputs": [
        {
          "internalType": "bytes32",
          "name": "role",
          "type": "bytes32"
        },
        {
          "internalType": "address",
          "name": "account",
          "type": "address"
        }
      ],
      "name": "hasRole",
      "outputs": [
        {
          "internalType": "bool",
          "name": "",
          "type": "bool"
        }
      ],
      "stateMutability": "view",
      "type": "function",
      "constant": true
    },
    {
      "inputs": [
        {
          "internalType": "bytes32",
          "name": "role",
          "type": "bytes32"
        },
        {
          "internalType": "address",
          "name": "account",
          "type": "address"
        }
      ],
      "name": "renounceRole",
      "outputs": [],
      "stateMutability": "nonpayable",
      "type": "function"
    },
    {
      "inputs": [
        {
          "internalType": "bytes32",
          "name": "role",
          "type": "bytes32"
        },
        {
          "internalType": "address",
          "name": "account",
          "type": "address"
        }
      ],
      "name": "revokeRole",
      "outputs": [],
      "stateMutability": "nonpayable",
      "type": "function"
    },
    {
      "inputs": [
        {
          "internalType": "bytes4",
          "name": "interfaceId",
          "type": "bytes4"
        }
      ],
      "name": "supportsInterface",
      "outputs": [
        {
          "internalType": "bool",
          "name": "",
          "type": "bool"
        }
      ],
      "stateMutability": "view",
      "type": "function",
      "constant": true
    },
    {
      "inputs": [
        {
          "internalType": "address",
          "name": "a",
          "type": "address"
        }
      ],
      "name": "setStudentList",
      "outputs": [],
      "stateMutability": "nonpayable",
      "type": "function"
    },
    {
      "inputs": [
        {
          "internalType": "string",
          "name": "name",
          "type": "string"
        },
        {
          "internalType": "string",
          "name": "examId",
          "type": "string"
        },
        {
          "internalType": "uint256",
          "name": "mark",
          "type": "uint256"
        },
        {
          "internalType": "string",
          "name": "studentId",
          "type": "string"
        }
      ],
      "name": "addExam",
      "outputs": [],
      "stateMutability": "nonpayable",
      "type": "function"
    },
    {
      "inputs": [
        {
          "internalType": "string",
          "name": "examId",
          "type": "string"
        }
      ],
      "name": "getExam",
      "outputs": [
        {
          "internalType": "string",
          "name": "",
          "type": "string"
        },
        {
          "internalType": "string",
          "name": "",
          "type": "string"
        },
        {
          "internalType": "uint256",
          "name": "",
          "type": "uint256"
        }
      ],
      "stateMutability": "nonpayable",
      "type": "function"
    },
    {
      "inputs": [],
      "name": "setProf",
      "outputs": [],
      "stateMutability": "payable",
      "type": "function",
      "payable": true
    }
  ],
  "bytecode": "0x60806040523480156200001157600080fd5b5033600260006101000a81548173ffffffffffffffffffffffffffffffffffffffff021916908373ffffffffffffffffffffffffffffffffffffffff160217905550620000857f4563a6dd3bdc9b10ba99ca2c2ca01dffa4239677c431253f4d9704bc6d17806733620000e260201b60201c565b60018060003373ffffffffffffffffffffffffffffffffffffffff1673ffffffffffffffffffffffffffffffffffffffff16815260200190815260200160002060006101000a81548160ff02191690831515021790555062000245565b620000f48282620001d360201b60201c565b620001cf57600160008084815260200190815260200160002060000160008373ffffffffffffffffffffffffffffffffffffffff1673ffffffffffffffffffffffffffffffffffffffff16815260200190815260200160002060006101000a81548160ff021916908315150217905550620001746200023d60201b60201c565b73ffffffffffffffffffffffffffffffffffffffff168173ffffffffffffffffffffffffffffffffffffffff16837f2f8788117e7eff1d82e926ec794901d17c78024a50270940304540a733656f0d60405160405180910390a45b5050565b600080600084815260200190815260200160002060000160008373ffffffffffffffffffffffffffffffffffffffff1673ffffffffffffffffffffffffffffffffffffffff16815260200190815260200160002060009054906101000a900460ff16905092915050565b600033905090565b611b7380620002556000396000f3fe60806040526004361061009c5760003560e01c806336568abe1161006457806336568abe1461017757806361afcc7b146101a057806391d14854146101df578063a217fddf1461021c578063aebc163414610247578063d547741f146102705761009c565b806301ffc9a7146100a15780630b65bb1c146100de578063196cd188146100e8578063248a9ca3146101115780632f2ff15d1461014e575b600080fd5b3480156100ad57600080fd5b506100c860048036038101906100c39190610eb8565b610299565b6040516100d59190610f00565b60405180910390f35b6100e6610313565b005b3480156100f457600080fd5b5061010f600480360381019061010a9190611097565b610396565b005b34801561011d57600080fd5b5061013860048036038101906101339190611188565b6105d7565b60405161014591906111c4565b60405180910390f35b34801561015a57600080fd5b506101756004803603810190610170919061123d565b6105f6565b005b34801561018357600080fd5b5061019e6004803603810190610199919061123d565b610617565b005b3480156101ac57600080fd5b506101c760048036038101906101c2919061127d565b61069a565b6040516101d693929190611354565b60405180910390f35b3480156101eb57600080fd5b506102066004803603810190610201919061123d565b610841565b6040516102139190610f00565b60405180910390f35b34801561022857600080fd5b506102316108ab565b60405161023e91906111c4565b60405180910390f35b34801561025357600080fd5b5061026e60048036038101906102699190611399565b6108b2565b005b34801561027c57600080fd5b506102976004803603810190610292919061123d565b6108f6565b005b60007f7965db0b000000000000000000000000000000000000000000000000000000007bffffffffffffffffffffffffffffffffffffffffffffffffffffffff1916827bffffffffffffffffffffffffffffffffffffffffffffffffffffffff1916148061030c575061030b82610917565b5b9050919050565b61033d7f4563a6dd3bdc9b10ba99ca2c2ca01dffa4239677c431253f4d9704bc6d17806733610981565b60018060003373ffffffffffffffffffffffffffffffffffffffff1673ffffffffffffffffffffffffffffffffffffffff16815260200190815260200160002060006101000a81548160ff021916908315150217905550565b6103c07f4563a6dd3bdc9b10ba99ca2c2ca01dffa4239677c431253f4d9704bc6d17806733610841565b508060011515600360009054906101000a900473ffffffffffffffffffffffffffffffffffffffff1673ffffffffffffffffffffffffffffffffffffffff1663d04becc7836040518263ffffffff1660e01b815260040161042191906113c6565b602060405180830381865afa15801561043e573d6000803e3d6000fd5b505050506040513d601f19601f820116820180604052508101906104629190611414565b1515146104a4576040517f08c379a000000000000000000000000000000000000000000000000000000000815260040161049b9061148d565b60405180910390fd5b600015156004856040516104b891906114e9565b908152602001604051809103902060040160009054906101000a900460ff16151514610519576040517f08c379a000000000000000000000000000000000000000000000000000000000815260040161051090611572565b60405180910390fd5b6040518060a001604052808681526020018581526020018481526020018381526020016001151581525060048560405161055391906114e9565b90815260200160405180910390206000820151816000019081610576919061179e565b50602082015181600101908161058c919061179e565b506040820151816002015560608201518160030190816105ac919061179e565b5060808201518160040160006101000a81548160ff0219169083151502179055509050505050505050565b6000806000838152602001908152602001600020600101549050919050565b6105ff826105d7565b61060881610a61565b6106128383610981565b505050565b61061f610a75565b73ffffffffffffffffffffffffffffffffffffffff168173ffffffffffffffffffffffffffffffffffffffff161461068c576040517f08c379a0000000000000000000000000000000000000000000000000000000008152600401610683906118e2565b60405180910390fd5b6106968282610a7d565b5050565b606080600060016004856040516106b191906114e9565b908152602001604051809103902060040160006101000a81548160ff02191690831515021790556106e157600080fd5b60006004856040516106f391906114e9565b9081526020016040518091039020905060008060008360000184600301856002015492508054610722906115c1565b80601f016020809104026020016040519081016040528092919081815260200182805461074e906115c1565b801561079b5780601f106107705761010080835404028352916020019161079b565b820191906000526020600020905b81548152906001019060200180831161077e57829003601f168201915b5050505050925080546107ad906115c1565b80601f01602080910402602001604051908101604052809291908181526020018280546107d9906115c1565b80156108265780601f106107fb57610100808354040283529160200191610826565b820191906000526020600020905b81548152906001019060200180831161080957829003601f168201915b50505050509250828282965096509650505050509193909250565b600080600084815260200190815260200160002060000160008373ffffffffffffffffffffffffffffffffffffffff1673ffffffffffffffffffffffffffffffffffffffff16815260200190815260200160002060009054906101000a900460ff16905092915050565b6000801b81565b80600360006101000a81548173ffffffffffffffffffffffffffffffffffffffff021916908373ffffffffffffffffffffffffffffffffffffffff16021790555050565b6108ff826105d7565b61090881610a61565b6109128383610a7d565b505050565b60007f01ffc9a7000000000000000000000000000000000000000000000000000000007bffffffffffffffffffffffffffffffffffffffffffffffffffffffff1916827bffffffffffffffffffffffffffffffffffffffffffffffffffffffff1916149050919050565b61098b8282610841565b610a5d57600160008084815260200190815260200160002060000160008373ffffffffffffffffffffffffffffffffffffffff1673ffffffffffffffffffffffffffffffffffffffff16815260200190815260200160002060006101000a81548160ff021916908315150217905550610a02610a75565b73ffffffffffffffffffffffffffffffffffffffff168173ffffffffffffffffffffffffffffffffffffffff16837f2f8788117e7eff1d82e926ec794901d17c78024a50270940304540a733656f0d60405160405180910390a45b5050565b610a7281610a6d610a75565b610b5e565b50565b600033905090565b610a878282610841565b15610b5a57600080600084815260200190815260200160002060000160008373ffffffffffffffffffffffffffffffffffffffff1673ffffffffffffffffffffffffffffffffffffffff16815260200190815260200160002060006101000a81548160ff021916908315150217905550610aff610a75565b73ffffffffffffffffffffffffffffffffffffffff168173ffffffffffffffffffffffffffffffffffffffff16837ff6391f5c32d9c69d2a47ea670b442974b53935d1edc7fd64eb21e047a839171b60405160405180910390a45b5050565b610b688282610841565b610bdf57610b7581610be3565b610b838360001c6020610c10565b604051602001610b9492919061199a565b6040516020818303038152906040526040517f08c379a0000000000000000000000000000000000000000000000000000000008152600401610bd691906113c6565b60405180910390fd5b5050565b6060610c098273ffffffffffffffffffffffffffffffffffffffff16601460ff16610c10565b9050919050565b606060006002836002610c239190611a03565b610c2d9190611a45565b67ffffffffffffffff811115610c4657610c45610f36565b5b6040519080825280601f01601f191660200182016040528015610c785781602001600182028036833780820191505090505b5090507f300000000000000000000000000000000000000000000000000000000000000081600081518110610cb057610caf611a79565b5b60200101907effffffffffffffffffffffffffffffffffffffffffffffffffffffffffffff1916908160001a9053507f780000000000000000000000000000000000000000000000000000000000000081600181518110610d1457610d13611a79565b5b60200101907effffffffffffffffffffffffffffffffffffffffffffffffffffffffffffff1916908160001a90535060006001846002610d549190611a03565b610d5e9190611a45565b90505b6001811115610dfe577f3031323334353637383961626364656600000000000000000000000000000000600f861660108110610da057610d9f611a79565b5b1a60f81b828281518110610db757610db6611a79565b5b60200101907effffffffffffffffffffffffffffffffffffffffffffffffffffffffffffff1916908160001a905350600485901c945080610df790611aa8565b9050610d61565b5060008414610e42576040517f08c379a0000000000000000000000000000000000000000000000000000000008152600401610e3990611b1d565b60405180910390fd5b8091505092915050565b6000604051905090565b600080fd5b600080fd5b60007fffffffff0000000000000000000000000000000000000000000000000000000082169050919050565b610e9581610e60565b8114610ea057600080fd5b50565b600081359050610eb281610e8c565b92915050565b600060208284031215610ece57610ecd610e56565b5b6000610edc84828501610ea3565b91505092915050565b60008115159050919050565b610efa81610ee5565b82525050565b6000602082019050610f156000830184610ef1565b92915050565b600080fd5b600080fd5b6000601f19601f8301169050919050565b7f4e487b7100000000000000000000000000000000000000000000000000000000600052604160045260246000fd5b610f6e82610f25565b810181811067ffffffffffffffff82111715610f8d57610f8c610f36565b5b80604052505050565b6000610fa0610e4c565b9050610fac8282610f65565b919050565b600067ffffffffffffffff821115610fcc57610fcb610f36565b5b610fd582610f25565b9050602081019050919050565b82818337600083830152505050565b6000611004610fff84610fb1565b610f96565b9050828152602081018484840111156110205761101f610f20565b5b61102b848285610fe2565b509392505050565b600082601f83011261104857611047610f1b565b5b8135611058848260208601610ff1565b91505092915050565b6000819050919050565b61107481611061565b811461107f57600080fd5b50565b6000813590506110918161106b565b92915050565b600080600080608085870312156110b1576110b0610e56565b5b600085013567ffffffffffffffff8111156110cf576110ce610e5b565b5b6110db87828801611033565b945050602085013567ffffffffffffffff8111156110fc576110fb610e5b565b5b61110887828801611033565b935050604061111987828801611082565b925050606085013567ffffffffffffffff81111561113a57611139610e5b565b5b61114687828801611033565b91505092959194509250565b6000819050919050565b61116581611152565b811461117057600080fd5b50565b6000813590506111828161115c565b92915050565b60006020828403121561119e5761119d610e56565b5b60006111ac84828501611173565b91505092915050565b6111be81611152565b82525050565b60006020820190506111d960008301846111b5565b92915050565b600073ffffffffffffffffffffffffffffffffffffffff82169050919050565b600061120a826111df565b9050919050565b61121a816111ff565b811461122557600080fd5b50565b60008135905061123781611211565b92915050565b6000806040838503121561125457611253610e56565b5b600061126285828601611173565b925050602061127385828601611228565b9150509250929050565b60006020828403121561129357611292610e56565b5b600082013567ffffffffffffffff8111156112b1576112b0610e5b565b5b6112bd84828501611033565b91505092915050565b600081519050919050565b600082825260208201905092915050565b60005b838110156113005780820151818401526020810190506112e5565b60008484015250505050565b6000611317826112c6565b61132181856112d1565b93506113318185602086016112e2565b61133a81610f25565b840191505092915050565b61134e81611061565b82525050565b6000606082019050818103600083015261136e818661130c565b90508181036020830152611382818561130c565b90506113916040830184611345565b949350505050565b6000602082840312156113af576113ae610e56565b5b60006113bd84828501611228565b91505092915050565b600060208201905081810360008301526113e0818461130c565b905092915050565b6113f181610ee5565b81146113fc57600080fd5b50565b60008151905061140e816113e8565b92915050565b60006020828403121561142a57611429610e56565b5b6000611438848285016113ff565b91505092915050565b7f6c6f2073747564656e7465206e6f6e2065736973746500000000000000000000600082015250565b60006114776016836112d1565b915061148282611441565b602082019050919050565b600060208201905081810360008301526114a68161146a565b9050919050565b600081905092915050565b60006114c3826112c6565b6114cd81856114ad565b93506114dd8185602086016112e2565b80840191505092915050565b60006114f582846114b8565b915081905092915050565b7f457369737465206769612720756e206573616d6520636f6e2071756573746f2060008201527f6469656e7469666963617469766f000000000000000000000000000000000000602082015250565b600061155c602e836112d1565b915061156782611500565b604082019050919050565b6000602082019050818103600083015261158b8161154f565b9050919050565b7f4e487b7100000000000000000000000000000000000000000000000000000000600052602260045260246000fd5b600060028204905060018216806115d957607f821691505b6020821081036115ec576115eb611592565b5b50919050565b60008190508160005260206000209050919050565b60006020601f8301049050919050565b600082821b905092915050565b6000600883026116547fffffffffffffffffffffffffffffffffffffffffffffffffffffffffffffffff82611617565b61165e8683611617565b95508019841693508086168417925050509392505050565b6000819050919050565b600061169b61169661169184611061565b611676565b611061565b9050919050565b6000819050919050565b6116b583611680565b6116c96116c1826116a2565b848454611624565b825550505050565b600090565b6116de6116d1565b6116e98184846116ac565b505050565b5b8181101561170d576117026000826116d6565b6001810190506116ef565b5050565b601f82111561175257611723816115f2565b61172c84611607565b8101602085101561173b578190505b61174f61174785611607565b8301826116ee565b50505b505050565b600082821c905092915050565b600061177560001984600802611757565b1980831691505092915050565b600061178e8383611764565b9150826002028217905092915050565b6117a7826112c6565b67ffffffffffffffff8111156117c0576117bf610f36565b5b6117ca82546115c1565b6117d5828285611711565b600060209050601f83116001811461180857600084156117f6578287015190505b6118008582611782565b865550611868565b601f198416611816866115f2565b60005b8281101561183e57848901518255600182019150602085019450602081019050611819565b8683101561185b5784890151611857601f891682611764565b8355505b6001600288020188555050505b505050505050565b7f416363657373436f6e74726f6c3a2063616e206f6e6c792072656e6f756e636560008201527f20726f6c657320666f722073656c660000000000000000000000000000000000602082015250565b60006118cc602f836112d1565b91506118d782611870565b604082019050919050565b600060208201905081810360008301526118fb816118bf565b9050919050565b7f416363657373436f6e74726f6c3a206163636f756e7420000000000000000000600082015250565b60006119386017836114ad565b915061194382611902565b601782019050919050565b7f206973206d697373696e6720726f6c6520000000000000000000000000000000600082015250565b60006119846011836114ad565b915061198f8261194e565b601182019050919050565b60006119a58261192b565b91506119b182856114b8565b91506119bc82611977565b91506119c882846114b8565b91508190509392505050565b7f4e487b7100000000000000000000000000000000000000000000000000000000600052601160045260246000fd5b6000611a0e82611061565b9150611a1983611061565b9250828202611a2781611061565b91508282048414831517611a3e57611a3d6119d4565b5b5092915050565b6000611a5082611061565b9150611a5b83611061565b9250828201905080821115611a7357611a726119d4565b5b92915050565b7f4e487b7100000000000000000000000000000000000000000000000000000000600052603260045260246000fd5b6000611ab382611061565b915060008203611ac657611ac56119d4565b5b600182039050919050565b7f537472696e67733a20686578206c656e67746820696e73756666696369656e74600082015250565b6000611b076020836112d1565b9150611b1282611ad1565b602082019050919050565b60006020820190508181036000830152611b3681611afa565b905091905056fea264697066735822122062ad483b5a18413d6728c7836e5a89b28d09dd77889a42024896e2c64e82c80464736f6c63430008110033",
  "immutableReferences": {},
  "source": "// SPDX-License-Identifier: GPL-3.0-or-later\r\npragma solidity ^0.8.0;\r\nimport \"./studentList.sol\";\r\n\r\nimport \"@openzeppelin/contracts/access/AccessControl.sol\";\r\n\r\n\r\ncontract ExamList is AccessControl{\r\n\r\n    bytes32 private constant PROF_ROLE = keccak256(\"PROF_ROLE\");\r\n\r\n    constructor() public{\r\n        owner = msg.sender;\r\n        _grantRole(PROF_ROLE, msg.sender);\r\n        profs[msg.sender] = true;\r\n    }\r\n\r\n    mapping(address => bool) private profs;\r\n\r\n    address private owner;\r\n    StudentList private s;\r\n    struct Exam{\r\n        string name;\r\n        string examId;\r\n        uint mark;\r\n        string studentId;\r\n        bool exist;\r\n    }\r\n\r\n    mapping (string => Exam) exams;\r\n\r\n    modifier onlyProfs(){\r\n        //require(profs[msg.sender], \"Colui che sta provando ad inserire l'esame non e' un prof\");\r\n        hasRole(PROF_ROLE, msg.sender);\r\n        _;\r\n    }\r\n\r\n    function setStudentList(address a) public {\r\n        s = StudentList(a);\r\n    }\r\n\r\n    modifier onlyIfStudentExist(string memory matricola) {\r\n        require (s.existStudent(matricola) == true, \"lo studente non esiste\");\r\n       _;\r\n    }\r\n\r\n    function addExam(string memory name, string memory examId, uint mark, string memory studentId) public onlyProfs onlyIfStudentExist(studentId){\r\n        require (exams[examId].exist == false, \"Esiste gia' un esame con questo dientificativo\");\r\n        exams[examId] = Exam(name,examId, mark, studentId, true);\r\n    }\r\n\r\n    function getExam(string memory examId) public returns(string memory, string memory, uint ){\r\n        require(exams[examId].exist = true);\r\n        Exam storage e = exams[examId];\r\n        (string memory examName, string memory studentId, uint mark ) = (e.name, e.studentId, e.mark);\r\n        return (examName, studentId, mark);\r\n    }\r\n\r\n    function setProf() public payable {\r\n        //TODO add value control\r\n        _grantRole(PROF_ROLE, msg.sender);\r\n        profs[msg.sender] = true;\r\n    }\r\n\r\n}\r\n",
  "sourcePath": "C:\\Users\\c.malafronte\\.vscode\\sicurezza_dei_dati\\firstTrufflePetShop\\progetto\\contracts\\examList.sol",
  "compiler": {
    "name": "solc",
    "version": "0.8.17+commit.8df45f5f.Emscripten.clang"
  },
  "schemaVersion": "3.4.3",
  "updatedAt": "2023-01-24T20:33:12.233Z",
  "networkType": "ethereum",
  "devdoc": {
    "kind": "dev",
    "methods": {
      "getRoleAdmin(bytes32)": {
        "details": "Returns the admin role that controls `role`. See {grantRole} and {revokeRole}. To change a role's admin, use {_setRoleAdmin}."
      },
      "grantRole(bytes32,address)": {
        "details": "Grants `role` to `account`. If `account` had not been already granted `role`, emits a {RoleGranted} event. Requirements: - the caller must have ``role``'s admin role. May emit a {RoleGranted} event."
      },
      "hasRole(bytes32,address)": {
        "details": "Returns `true` if `account` has been granted `role`."
      },
      "renounceRole(bytes32,address)": {
        "details": "Revokes `role` from the calling account. Roles are often managed via {grantRole} and {revokeRole}: this function's purpose is to provide a mechanism for accounts to lose their privileges if they are compromised (such as when a trusted device is misplaced). If the calling account had been revoked `role`, emits a {RoleRevoked} event. Requirements: - the caller must be `account`. May emit a {RoleRevoked} event."
      },
      "revokeRole(bytes32,address)": {
        "details": "Revokes `role` from `account`. If `account` had been granted `role`, emits a {RoleRevoked} event. Requirements: - the caller must have ``role``'s admin role. May emit a {RoleRevoked} event."
      },
      "supportsInterface(bytes4)": {
        "details": "See {IERC165-supportsInterface}."
      }
    },
    "version": 1
  },
  "userdoc": {
    "kind": "user",
    "methods": {},
    "version": 1
  }
}