{
  "contractName": "ExamList",
  "abi": [
    {
      "inputs": [],
      "stateMutability": "nonpayable",
      "type": "constructor"
    },
    {
      "anonymous": false,
      "inputs": [
        {
          "indexed": true,
          "internalType": "bytes32",
          "name": "role",
          "type": "bytes32"
        },
        {
          "indexed": true,
          "internalType": "bytes32",
          "name": "previousAdminRole",
          "type": "bytes32"
        },
        {
          "indexed": true,
          "internalType": "bytes32",
          "name": "newAdminRole",
          "type": "bytes32"
        }
      ],
      "name": "RoleAdminChanged",
      "type": "event"
    },
    {
      "anonymous": false,
      "inputs": [
        {
          "indexed": true,
          "internalType": "bytes32",
          "name": "role",
          "type": "bytes32"
        },
        {
          "indexed": true,
          "internalType": "address",
          "name": "account",
          "type": "address"
        },
        {
          "indexed": true,
          "internalType": "address",
          "name": "sender",
          "type": "address"
        }
      ],
      "name": "RoleGranted",
      "type": "event"
    },
    {
      "anonymous": false,
      "inputs": [
        {
          "indexed": true,
          "internalType": "bytes32",
          "name": "role",
          "type": "bytes32"
        },
        {
          "indexed": true,
          "internalType": "address",
          "name": "account",
          "type": "address"
        },
        {
          "indexed": true,
          "internalType": "address",
          "name": "sender",
          "type": "address"
        }
      ],
      "name": "RoleRevoked",
      "type": "event"
    },
    {
      "inputs": [],
      "name": "DEFAULT_ADMIN_ROLE",
      "outputs": [
        {
          "internalType": "bytes32",
          "name": "",
          "type": "bytes32"
        }
      ],
      "stateMutability": "view",
      "type": "function"
    },
    {
      "inputs": [
        {
          "internalType": "bytes32",
          "name": "role",
          "type": "bytes32"
        }
      ],
      "name": "getRoleAdmin",
      "outputs": [
        {
          "internalType": "bytes32",
          "name": "",
          "type": "bytes32"
        }
      ],
      "stateMutability": "view",
      "type": "function"
    },
    {
      "inputs": [
        {
          "internalType": "bytes32",
          "name": "role",
          "type": "bytes32"
        },
        {
          "internalType": "address",
          "name": "account",
          "type": "address"
        }
      ],
      "name": "grantRole",
      "outputs": [],
      "stateMutability": "nonpayable",
      "type": "function"
    },
    {
      "inputs": [
        {
          "internalType": "bytes32",
          "name": "role",
          "type": "bytes32"
        },
        {
          "internalType": "address",
          "name": "account",
          "type": "address"
        }
      ],
      "name": "hasRole",
      "outputs": [
        {
          "internalType": "bool",
          "name": "",
          "type": "bool"
        }
      ],
      "stateMutability": "view",
      "type": "function"
    },
    {
      "inputs": [
        {
          "internalType": "bytes32",
          "name": "role",
          "type": "bytes32"
        },
        {
          "internalType": "address",
          "name": "account",
          "type": "address"
        }
      ],
      "name": "renounceRole",
      "outputs": [],
      "stateMutability": "nonpayable",
      "type": "function"
    },
    {
      "inputs": [
        {
          "internalType": "bytes32",
          "name": "role",
          "type": "bytes32"
        },
        {
          "internalType": "address",
          "name": "account",
          "type": "address"
        }
      ],
      "name": "revokeRole",
      "outputs": [],
      "stateMutability": "nonpayable",
      "type": "function"
    },
    {
      "inputs": [
        {
          "internalType": "bytes4",
          "name": "interfaceId",
          "type": "bytes4"
        }
      ],
      "name": "supportsInterface",
      "outputs": [
        {
          "internalType": "bool",
          "name": "",
          "type": "bool"
        }
      ],
      "stateMutability": "view",
      "type": "function"
    },
    {
      "inputs": [
        {
          "internalType": "address",
          "name": "a",
          "type": "address"
        }
      ],
      "name": "setStudentList",
      "outputs": [],
      "stateMutability": "nonpayable",
      "type": "function"
    },
    {
      "inputs": [
        {
          "internalType": "string",
          "name": "matricola",
          "type": "string"
        }
      ],
      "name": "onlyIfStudentExist",
      "outputs": [],
      "stateMutability": "view",
      "type": "function"
    },
    {
      "inputs": [
        {
          "internalType": "string",
          "name": "name",
          "type": "string"
        },
        {
          "internalType": "string",
          "name": "examId",
          "type": "string"
        },
        {
          "internalType": "uint256",
          "name": "mark",
          "type": "uint256"
        },
        {
          "internalType": "string",
          "name": "studentId",
          "type": "string"
        }
      ],
      "name": "addExam",
      "outputs": [],
      "stateMutability": "nonpayable",
      "type": "function"
    },
    {
      "inputs": [
        {
          "internalType": "string",
          "name": "examId",
          "type": "string"
        }
      ],
      "name": "getExam",
      "outputs": [
        {
          "internalType": "string",
          "name": "",
          "type": "string"
        },
        {
          "internalType": "string",
          "name": "",
          "type": "string"
        },
        {
          "internalType": "uint256",
          "name": "",
          "type": "uint256"
        }
      ],
      "stateMutability": "view",
      "type": "function"
    },
    {
      "inputs": [],
      "name": "setProf",
      "outputs": [],
      "stateMutability": "payable",
      "type": "function"
    }
  ],
  "bytecode": "0x60806040523480156200001157600080fd5b5033600260006101000a81548173ffffffffffffffffffffffffffffffffffffffff021916908373ffffffffffffffffffffffffffffffffffffffff160217905550620000857f4563a6dd3bdc9b10ba99ca2c2ca01dffa4239677c431253f4d9704bc6d17806733620000e260201b60201c565b60018060003373ffffffffffffffffffffffffffffffffffffffff1673ffffffffffffffffffffffffffffffffffffffff16815260200190815260200160002060006101000a81548160ff02191690831515021790555062000245565b620000f48282620001d360201b60201c565b620001cf57600160008084815260200190815260200160002060000160008373ffffffffffffffffffffffffffffffffffffffff1673ffffffffffffffffffffffffffffffffffffffff16815260200190815260200160002060006101000a81548160ff021916908315150217905550620001746200023d60201b60201c565b73ffffffffffffffffffffffffffffffffffffffff168173ffffffffffffffffffffffffffffffffffffffff16837f2f8788117e7eff1d82e926ec794901d17c78024a50270940304540a733656f0d60405160405180910390a45b5050565b600080600084815260200190815260200160002060000160008373ffffffffffffffffffffffffffffffffffffffff1673ffffffffffffffffffffffffffffffffffffffff16815260200190815260200160002060009054906101000a900460ff16905092915050565b600033905090565b611c7380620002556000396000f3fe6080604052600436106100a75760003560e01c806336568abe1161006457806336568abe146101ab57806361afcc7b146101d457806391d1485414610213578063a217fddf14610250578063aebc16341461027b578063d547741f146102a4576100a7565b806301ffc9a7146100ac5780630b65bb1c146100e9578063196cd188146100f3578063248a9ca31461011c5780632f2ff15d146101595780633091439414610182575b600080fd5b3480156100b857600080fd5b506100d360048036038101906100ce9190610f26565b6102cd565b6040516100e09190610f6e565b60405180910390f35b6100f1610347565b005b3480156100ff57600080fd5b5061011a60048036038101906101159190611105565b6103ca565b005b34801561012857600080fd5b50610143600480360381019061013e91906111f6565b61056e565b6040516101509190611232565b60405180910390f35b34801561016557600080fd5b50610180600480360381019061017b91906112ab565b61058d565b005b34801561018e57600080fd5b506101a960048036038101906101a491906112eb565b6105ae565b005b3480156101b757600080fd5b506101d260048036038101906101cd91906112ab565b610693565b005b3480156101e057600080fd5b506101fb60048036038101906101f691906112eb565b610716565b60405161020a939291906113c2565b60405180910390f35b34801561021f57600080fd5b5061023a600480360381019061023591906112ab565b6108af565b6040516102479190610f6e565b60405180910390f35b34801561025c57600080fd5b50610265610919565b6040516102729190611232565b60405180910390f35b34801561028757600080fd5b506102a2600480360381019061029d9190611407565b610920565b005b3480156102b057600080fd5b506102cb60048036038101906102c691906112ab565b610964565b005b60007f7965db0b000000000000000000000000000000000000000000000000000000007bffffffffffffffffffffffffffffffffffffffffffffffffffffffff1916827bffffffffffffffffffffffffffffffffffffffffffffffffffffffff19161480610340575061033f82610985565b5b9050919050565b6103717f4563a6dd3bdc9b10ba99ca2c2ca01dffa4239677c431253f4d9704bc6d178067336109ef565b60018060003373ffffffffffffffffffffffffffffffffffffffff1673ffffffffffffffffffffffffffffffffffffffff16815260200190815260200160002060006101000a81548160ff021916908315150217905550565b6103f47f4563a6dd3bdc9b10ba99ca2c2ca01dffa4239677c431253f4d9704bc6d178067336108af565b610433576040517f08c379a000000000000000000000000000000000000000000000000000000000815260040161042a906114a6565b60405180910390fd5b61043c816105ae565b600015156004846040516104509190611502565b908152602001604051809103902060040160009054906101000a900460ff161515146104b1576040517f08c379a00000000000000000000000000000000000000000000000000000000081526004016104a89061158b565b60405180910390fd5b6040518060a00160405280858152602001848152602001838152602001828152602001600115158152506004846040516104eb9190611502565b9081526020016040518091039020600082015181600001908161050e91906117b7565b50602082015181600101908161052491906117b7565b5060408201518160020155606082015181600301908161054491906117b7565b5060808201518160040160006101000a81548160ff02191690831515021790555090505050505050565b6000806000838152602001908152602001600020600101549050919050565b6105968261056e565b61059f81610acf565b6105a983836109ef565b505050565b60011515600360009054906101000a900473ffffffffffffffffffffffffffffffffffffffff1673ffffffffffffffffffffffffffffffffffffffff1663d04becc7836040518263ffffffff1660e01b815260040161060d9190611889565b602060405180830381865afa15801561062a573d6000803e3d6000fd5b505050506040513d601f19601f8201168201806040525081019061064e91906118d7565b151514610690576040517f08c379a000000000000000000000000000000000000000000000000000000000815260040161068790611950565b60405180910390fd5b50565b61069b610ae3565b73ffffffffffffffffffffffffffffffffffffffff168173ffffffffffffffffffffffffffffffffffffffff1614610708576040517f08c379a00000000000000000000000000000000000000000000000000000000081526004016106ff906119e2565b60405180910390fd5b6107128282610aeb565b5050565b60608060006001151560048560405161072f9190611502565b908152602001604051809103902060040160009054906101000a900460ff1615151461075a57600080fd5b600060048560405161076c9190611502565b9081526020016040518091039020905080600001816003018260020154828054610795906115da565b80601f01602080910402602001604051908101604052809291908181526020018280546107c1906115da565b801561080e5780601f106107e35761010080835404028352916020019161080e565b820191906000526020600020905b8154815290600101906020018083116107f157829003601f168201915b50505050509250818054610821906115da565b80601f016020809104026020016040519081016040528092919081815260200182805461084d906115da565b801561089a5780601f1061086f5761010080835404028352916020019161089a565b820191906000526020600020905b81548152906001019060200180831161087d57829003601f168201915b50505050509150935093509350509193909250565b600080600084815260200190815260200160002060000160008373ffffffffffffffffffffffffffffffffffffffff1673ffffffffffffffffffffffffffffffffffffffff16815260200190815260200160002060009054906101000a900460ff16905092915050565b6000801b81565b80600360006101000a81548173ffffffffffffffffffffffffffffffffffffffff021916908373ffffffffffffffffffffffffffffffffffffffff16021790555050565b61096d8261056e565b61097681610acf565b6109808383610aeb565b505050565b60007f01ffc9a7000000000000000000000000000000000000000000000000000000007bffffffffffffffffffffffffffffffffffffffffffffffffffffffff1916827bffffffffffffffffffffffffffffffffffffffffffffffffffffffff1916149050919050565b6109f982826108af565b610acb57600160008084815260200190815260200160002060000160008373ffffffffffffffffffffffffffffffffffffffff1673ffffffffffffffffffffffffffffffffffffffff16815260200190815260200160002060006101000a81548160ff021916908315150217905550610a70610ae3565b73ffffffffffffffffffffffffffffffffffffffff168173ffffffffffffffffffffffffffffffffffffffff16837f2f8788117e7eff1d82e926ec794901d17c78024a50270940304540a733656f0d60405160405180910390a45b5050565b610ae081610adb610ae3565b610bcc565b50565b600033905090565b610af582826108af565b15610bc857600080600084815260200190815260200160002060000160008373ffffffffffffffffffffffffffffffffffffffff1673ffffffffffffffffffffffffffffffffffffffff16815260200190815260200160002060006101000a81548160ff021916908315150217905550610b6d610ae3565b73ffffffffffffffffffffffffffffffffffffffff168173ffffffffffffffffffffffffffffffffffffffff16837ff6391f5c32d9c69d2a47ea670b442974b53935d1edc7fd64eb21e047a839171b60405160405180910390a45b5050565b610bd682826108af565b610c4d57610be381610c51565b610bf18360001c6020610c7e565b604051602001610c02929190611a9a565b6040516020818303038152906040526040517f08c379a0000000000000000000000000000000000000000000000000000000008152600401610c449190611889565b60405180910390fd5b5050565b6060610c778273ffffffffffffffffffffffffffffffffffffffff16601460ff16610c7e565b9050919050565b606060006002836002610c919190611b03565b610c9b9190611b45565b67ffffffffffffffff811115610cb457610cb3610fa4565b5b6040519080825280601f01601f191660200182016040528015610ce65781602001600182028036833780820191505090505b5090507f300000000000000000000000000000000000000000000000000000000000000081600081518110610d1e57610d1d611b79565b5b60200101907effffffffffffffffffffffffffffffffffffffffffffffffffffffffffffff1916908160001a9053507f780000000000000000000000000000000000000000000000000000000000000081600181518110610d8257610d81611b79565b5b60200101907effffffffffffffffffffffffffffffffffffffffffffffffffffffffffffff1916908160001a90535060006001846002610dc29190611b03565b610dcc9190611b45565b90505b6001811115610e6c577f3031323334353637383961626364656600000000000000000000000000000000600f861660108110610e0e57610e0d611b79565b5b1a60f81b828281518110610e2557610e24611b79565b5b60200101907effffffffffffffffffffffffffffffffffffffffffffffffffffffffffffff1916908160001a905350600485901c945080610e6590611ba8565b9050610dcf565b5060008414610eb0576040517f08c379a0000000000000000000000000000000000000000000000000000000008152600401610ea790611c1d565b60405180910390fd5b8091505092915050565b6000604051905090565b600080fd5b600080fd5b60007fffffffff0000000000000000000000000000000000000000000000000000000082169050919050565b610f0381610ece565b8114610f0e57600080fd5b50565b600081359050610f2081610efa565b92915050565b600060208284031215610f3c57610f3b610ec4565b5b6000610f4a84828501610f11565b91505092915050565b60008115159050919050565b610f6881610f53565b82525050565b6000602082019050610f836000830184610f5f565b92915050565b600080fd5b600080fd5b6000601f19601f8301169050919050565b7f4e487b7100000000000000000000000000000000000000000000000000000000600052604160045260246000fd5b610fdc82610f93565b810181811067ffffffffffffffff82111715610ffb57610ffa610fa4565b5b80604052505050565b600061100e610eba565b905061101a8282610fd3565b919050565b600067ffffffffffffffff82111561103a57611039610fa4565b5b61104382610f93565b9050602081019050919050565b82818337600083830152505050565b600061107261106d8461101f565b611004565b90508281526020810184848401111561108e5761108d610f8e565b5b611099848285611050565b509392505050565b600082601f8301126110b6576110b5610f89565b5b81356110c684826020860161105f565b91505092915050565b6000819050919050565b6110e2816110cf565b81146110ed57600080fd5b50565b6000813590506110ff816110d9565b92915050565b6000806000806080858703121561111f5761111e610ec4565b5b600085013567ffffffffffffffff81111561113d5761113c610ec9565b5b611149878288016110a1565b945050602085013567ffffffffffffffff81111561116a57611169610ec9565b5b611176878288016110a1565b9350506040611187878288016110f0565b925050606085013567ffffffffffffffff8111156111a8576111a7610ec9565b5b6111b4878288016110a1565b91505092959194509250565b6000819050919050565b6111d3816111c0565b81146111de57600080fd5b50565b6000813590506111f0816111ca565b92915050565b60006020828403121561120c5761120b610ec4565b5b600061121a848285016111e1565b91505092915050565b61122c816111c0565b82525050565b60006020820190506112476000830184611223565b92915050565b600073ffffffffffffffffffffffffffffffffffffffff82169050919050565b60006112788261124d565b9050919050565b6112888161126d565b811461129357600080fd5b50565b6000813590506112a58161127f565b92915050565b600080604083850312156112c2576112c1610ec4565b5b60006112d0858286016111e1565b92505060206112e185828601611296565b9150509250929050565b60006020828403121561130157611300610ec4565b5b600082013567ffffffffffffffff81111561131f5761131e610ec9565b5b61132b848285016110a1565b91505092915050565b600081519050919050565b600082825260208201905092915050565b60005b8381101561136e578082015181840152602081019050611353565b60008484015250505050565b600061138582611334565b61138f818561133f565b935061139f818560208601611350565b6113a881610f93565b840191505092915050565b6113bc816110cf565b82525050565b600060608201905081810360008301526113dc818661137a565b905081810360208301526113f0818561137a565b90506113ff60408301846113b3565b949350505050565b60006020828403121561141d5761141c610ec4565b5b600061142b84828501611296565b91505092915050565b7f6e6f6e2068616920696c207065726d6573736f2064692065736567756972652060008201527f717565737427617a696f6e650000000000000000000000000000000000000000602082015250565b6000611490602c8361133f565b915061149b82611434565b604082019050919050565b600060208201905081810360008301526114bf81611483565b9050919050565b600081905092915050565b60006114dc82611334565b6114e681856114c6565b93506114f6818560208601611350565b80840191505092915050565b600061150e82846114d1565b915081905092915050565b7f457369737465206769612720756e206573616d6520636f6e2071756573746f2060008201527f6964656e7469666963617469766f000000000000000000000000000000000000602082015250565b6000611575602e8361133f565b915061158082611519565b604082019050919050565b600060208201905081810360008301526115a481611568565b9050919050565b7f4e487b7100000000000000000000000000000000000000000000000000000000600052602260045260246000fd5b600060028204905060018216806115f257607f821691505b602082108103611605576116046115ab565b5b50919050565b60008190508160005260206000209050919050565b60006020601f8301049050919050565b600082821b905092915050565b60006008830261166d7fffffffffffffffffffffffffffffffffffffffffffffffffffffffffffffffff82611630565b6116778683611630565b95508019841693508086168417925050509392505050565b6000819050919050565b60006116b46116af6116aa846110cf565b61168f565b6110cf565b9050919050565b6000819050919050565b6116ce83611699565b6116e26116da826116bb565b84845461163d565b825550505050565b600090565b6116f76116ea565b6117028184846116c5565b505050565b5b818110156117265761171b6000826116ef565b600181019050611708565b5050565b601f82111561176b5761173c8161160b565b61174584611620565b81016020851015611754578190505b61176861176085611620565b830182611707565b50505b505050565b600082821c905092915050565b600061178e60001984600802611770565b1980831691505092915050565b60006117a7838361177d565b9150826002028217905092915050565b6117c082611334565b67ffffffffffffffff8111156117d9576117d8610fa4565b5b6117e382546115da565b6117ee82828561172a565b600060209050601f831160018114611821576000841561180f578287015190505b611819858261179b565b865550611881565b601f19841661182f8661160b565b60005b8281101561185757848901518255600182019150602085019450602081019050611832565b868310156118745784890151611870601f89168261177d565b8355505b6001600288020188555050505b505050505050565b600060208201905081810360008301526118a3818461137a565b905092915050565b6118b481610f53565b81146118bf57600080fd5b50565b6000815190506118d1816118ab565b92915050565b6000602082840312156118ed576118ec610ec4565b5b60006118fb848285016118c2565b91505092915050565b7f6c6f2073747564656e7465206e6f6e2065736973746500000000000000000000600082015250565b600061193a60168361133f565b915061194582611904565b602082019050919050565b600060208201905081810360008301526119698161192d565b9050919050565b7f416363657373436f6e74726f6c3a2063616e206f6e6c792072656e6f756e636560008201527f20726f6c657320666f722073656c660000000000000000000000000000000000602082015250565b60006119cc602f8361133f565b91506119d782611970565b604082019050919050565b600060208201905081810360008301526119fb816119bf565b9050919050565b7f416363657373436f6e74726f6c3a206163636f756e7420000000000000000000600082015250565b6000611a386017836114c6565b9150611a4382611a02565b601782019050919050565b7f206973206d697373696e6720726f6c6520000000000000000000000000000000600082015250565b6000611a846011836114c6565b9150611a8f82611a4e565b601182019050919050565b6000611aa582611a2b565b9150611ab182856114d1565b9150611abc82611a77565b9150611ac882846114d1565b91508190509392505050565b7f4e487b7100000000000000000000000000000000000000000000000000000000600052601160045260246000fd5b6000611b0e826110cf565b9150611b19836110cf565b9250828202611b27816110cf565b91508282048414831517611b3e57611b3d611ad4565b5b5092915050565b6000611b50826110cf565b9150611b5b836110cf565b9250828201905080821115611b7357611b72611ad4565b5b92915050565b7f4e487b7100000000000000000000000000000000000000000000000000000000600052603260045260246000fd5b6000611bb3826110cf565b915060008203611bc657611bc5611ad4565b5b600182039050919050565b7f537472696e67733a20686578206c656e67746820696e73756666696369656e74600082015250565b6000611c0760208361133f565b9150611c1282611bd1565b602082019050919050565b60006020820190508181036000830152611c3681611bfa565b905091905056fea2646970667358221220136c61a673fb1910deb82db76cdb6d3884c05038d0bb4be0605b404ab320f08364736f6c63430008110033",
  "immutableReferences": {},
  "source": "// SPDX-License-Identifier: GPL-3.0-or-later\r\npragma solidity ^0.8.0;\r\nimport \"./studentList.sol\";\r\n\r\nimport \"@openzeppelin/contracts/access/AccessControl.sol\";\r\n\r\n\r\ncontract ExamList is AccessControl{\r\n\r\n    bytes32 private constant PROF_ROLE = keccak256(\"PROF_ROLE\");\r\n\r\n    constructor() public{\r\n        owner = msg.sender;\r\n        _grantRole(PROF_ROLE, msg.sender);\r\n        profs[msg.sender] = true;\r\n    }\r\n\r\n    mapping(address => bool) private profs;\r\n\r\n    address private owner;\r\n    StudentList private s;\r\n    struct Exam{\r\n        string name;\r\n        string examId;\r\n        uint mark;\r\n        string studentId;\r\n        bool exist;\r\n    }\r\n\r\n    mapping (string => Exam) exams;\r\n\r\n    modifier onlyProfs(){\r\n        require(hasRole(PROF_ROLE, msg.sender),\"non hai il permesso di eseguire quest'azione\");\r\n        _;\r\n    }\r\n\r\n    function setStudentList(address a) public {\r\n        s = StudentList(a);\r\n    }\r\n\r\n    function onlyIfStudentExist(string memory matricola) public view {\r\n        require (s.existStudent(matricola) == true, \"lo studente non esiste\");\r\n    }\r\n\r\n    function addExam(string memory name, string memory examId, uint mark, string memory studentId) public onlyProfs {\r\n        onlyIfStudentExist(studentId);\r\n        require (exams[examId].exist == false, \"Esiste gia' un esame con questo identificativo\");\r\n        exams[examId] = Exam(name,examId, mark, studentId, true);\r\n    }\r\n\r\n    function getExam(string memory examId) public view returns(string memory, string memory, uint ){\r\n        require(exams[examId].exist == true);\r\n        Exam storage e = exams[examId];\r\n        return (e.name, e.studentId, e.mark);\r\n    }\r\n\r\n    function setProf() public payable {\r\n        //TODO add value control\r\n        _grantRole(PROF_ROLE, msg.sender);\r\n        profs[msg.sender] = true;\r\n    }\r\n\r\n}\r\n",
  "sourcePath": "C:\\Users\\c.malafronte\\.vscode\\sicurezza_dei_dati\\firstTrufflePetShop\\progetto\\contracts\\examList.sol",
  "compiler": {
    "name": "solc",
    "version": "0.8.17+commit.8df45f5f.Emscripten.clang"
  },
  "schemaVersion": "3.4.3",
  "updatedAt": "2023-01-30T19:02:19.934Z",
  "devdoc": {
    "kind": "dev",
    "methods": {
      "getRoleAdmin(bytes32)": {
        "details": "Returns the admin role that controls `role`. See {grantRole} and {revokeRole}. To change a role's admin, use {_setRoleAdmin}."
      },
      "grantRole(bytes32,address)": {
        "details": "Grants `role` to `account`. If `account` had not been already granted `role`, emits a {RoleGranted} event. Requirements: - the caller must have ``role``'s admin role. May emit a {RoleGranted} event."
      },
      "hasRole(bytes32,address)": {
        "details": "Returns `true` if `account` has been granted `role`."
      },
      "renounceRole(bytes32,address)": {
        "details": "Revokes `role` from the calling account. Roles are often managed via {grantRole} and {revokeRole}: this function's purpose is to provide a mechanism for accounts to lose their privileges if they are compromised (such as when a trusted device is misplaced). If the calling account had been revoked `role`, emits a {RoleRevoked} event. Requirements: - the caller must be `account`. May emit a {RoleRevoked} event."
      },
      "revokeRole(bytes32,address)": {
        "details": "Revokes `role` from `account`. If `account` had been granted `role`, emits a {RoleRevoked} event. Requirements: - the caller must have ``role``'s admin role. May emit a {RoleRevoked} event."
      },
      "supportsInterface(bytes4)": {
        "details": "See {IERC165-supportsInterface}."
      }
    },
    "version": 1
  },
  "userdoc": {
    "kind": "user",
    "methods": {},
    "version": 1
  }
}