{
  "contractName": "StudentList",
  "abi": [
    {
      "inputs": [],
      "stateMutability": "nonpayable",
      "type": "constructor"
    },
    {
      "anonymous": false,
      "inputs": [
        {
          "indexed": true,
          "internalType": "bytes32",
          "name": "role",
          "type": "bytes32"
        },
        {
          "indexed": true,
          "internalType": "bytes32",
          "name": "previousAdminRole",
          "type": "bytes32"
        },
        {
          "indexed": true,
          "internalType": "bytes32",
          "name": "newAdminRole",
          "type": "bytes32"
        }
      ],
      "name": "RoleAdminChanged",
      "type": "event"
    },
    {
      "anonymous": false,
      "inputs": [
        {
          "indexed": true,
          "internalType": "bytes32",
          "name": "role",
          "type": "bytes32"
        },
        {
          "indexed": true,
          "internalType": "address",
          "name": "account",
          "type": "address"
        },
        {
          "indexed": true,
          "internalType": "address",
          "name": "sender",
          "type": "address"
        }
      ],
      "name": "RoleGranted",
      "type": "event"
    },
    {
      "anonymous": false,
      "inputs": [
        {
          "indexed": true,
          "internalType": "bytes32",
          "name": "role",
          "type": "bytes32"
        },
        {
          "indexed": true,
          "internalType": "address",
          "name": "account",
          "type": "address"
        },
        {
          "indexed": true,
          "internalType": "address",
          "name": "sender",
          "type": "address"
        }
      ],
      "name": "RoleRevoked",
      "type": "event"
    },
    {
      "inputs": [],
      "name": "DEFAULT_ADMIN_ROLE",
      "outputs": [
        {
          "internalType": "bytes32",
          "name": "",
          "type": "bytes32"
        }
      ],
      "stateMutability": "view",
      "type": "function"
    },
    {
      "inputs": [
        {
          "internalType": "bytes32",
          "name": "role",
          "type": "bytes32"
        }
      ],
      "name": "getRoleAdmin",
      "outputs": [
        {
          "internalType": "bytes32",
          "name": "",
          "type": "bytes32"
        }
      ],
      "stateMutability": "view",
      "type": "function"
    },
    {
      "inputs": [
        {
          "internalType": "bytes32",
          "name": "role",
          "type": "bytes32"
        },
        {
          "internalType": "address",
          "name": "account",
          "type": "address"
        }
      ],
      "name": "grantRole",
      "outputs": [],
      "stateMutability": "nonpayable",
      "type": "function"
    },
    {
      "inputs": [
        {
          "internalType": "bytes32",
          "name": "role",
          "type": "bytes32"
        },
        {
          "internalType": "address",
          "name": "account",
          "type": "address"
        }
      ],
      "name": "hasRole",
      "outputs": [
        {
          "internalType": "bool",
          "name": "",
          "type": "bool"
        }
      ],
      "stateMutability": "view",
      "type": "function"
    },
    {
      "inputs": [
        {
          "internalType": "bytes32",
          "name": "role",
          "type": "bytes32"
        },
        {
          "internalType": "address",
          "name": "account",
          "type": "address"
        }
      ],
      "name": "renounceRole",
      "outputs": [],
      "stateMutability": "nonpayable",
      "type": "function"
    },
    {
      "inputs": [
        {
          "internalType": "bytes32",
          "name": "role",
          "type": "bytes32"
        },
        {
          "internalType": "address",
          "name": "account",
          "type": "address"
        }
      ],
      "name": "revokeRole",
      "outputs": [],
      "stateMutability": "nonpayable",
      "type": "function"
    },
    {
      "inputs": [
        {
          "internalType": "bytes4",
          "name": "interfaceId",
          "type": "bytes4"
        }
      ],
      "name": "supportsInterface",
      "outputs": [
        {
          "internalType": "bool",
          "name": "",
          "type": "bool"
        }
      ],
      "stateMutability": "view",
      "type": "function"
    },
    {
      "inputs": [
        {
          "internalType": "string",
          "name": "name",
          "type": "string"
        },
        {
          "internalType": "string",
          "name": "surname",
          "type": "string"
        },
        {
          "internalType": "string",
          "name": "matricola",
          "type": "string"
        }
      ],
      "name": "addStudent",
      "outputs": [],
      "stateMutability": "nonpayable",
      "type": "function"
    },
    {
      "inputs": [
        {
          "internalType": "string",
          "name": "matricola",
          "type": "string"
        }
      ],
      "name": "getStudent",
      "outputs": [
        {
          "internalType": "string",
          "name": "",
          "type": "string"
        },
        {
          "internalType": "string",
          "name": "",
          "type": "string"
        },
        {
          "internalType": "string",
          "name": "",
          "type": "string"
        }
      ],
      "stateMutability": "view",
      "type": "function"
    },
    {
      "inputs": [
        {
          "internalType": "string",
          "name": "matricola",
          "type": "string"
        }
      ],
      "name": "existStudent",
      "outputs": [
        {
          "internalType": "bool",
          "name": "",
          "type": "bool"
        }
      ],
      "stateMutability": "view",
      "type": "function"
    },
    {
      "inputs": [
        {
          "internalType": "address",
          "name": "newRector",
          "type": "address"
        }
      ],
      "name": "setNewRector",
      "outputs": [],
      "stateMutability": "payable",
      "type": "function"
    }
  ],
  "bytecode": "0x60806040523480156200001157600080fd5b50620000447fa865e801203154251a7a6c8deb94be73c7242cb4e51b02d75ffa8eacd6a8d2dd336200004a60201b60201c565b620001ad565b6200005c82826200013b60201b60201c565b6200013757600160008084815260200190815260200160002060000160008373ffffffffffffffffffffffffffffffffffffffff1673ffffffffffffffffffffffffffffffffffffffff16815260200190815260200160002060006101000a81548160ff021916908315150217905550620000dc620001a560201b60201c565b73ffffffffffffffffffffffffffffffffffffffff168173ffffffffffffffffffffffffffffffffffffffff16837f2f8788117e7eff1d82e926ec794901d17c78024a50270940304540a733656f0d60405160405180910390a45b5050565b600080600084815260200190815260200160002060000160008373ffffffffffffffffffffffffffffffffffffffff1673ffffffffffffffffffffffffffffffffffffffff16815260200190815260200160002060009054906101000a900460ff16905092915050565b600033905090565b611d5e80620001bd6000396000f3fe60806040526004361061009c5760003560e01c8063a217fddf11610064578063a217fddf146101aa578063aa518b90146101d5578063d0296612146101fe578063d04becc71461023d578063d547741f1461027a578063f7936eb2146102a35761009c565b806301ffc9a7146100a1578063248a9ca3146100de5780632f2ff15d1461011b57806336568abe1461014457806391d148541461016d575b600080fd5b3480156100ad57600080fd5b506100c860048036038101906100c39190610f58565b6102bf565b6040516100d59190610fa0565b60405180910390f35b3480156100ea57600080fd5b5061010560048036038101906101009190610ff1565b610339565b604051610112919061102d565b60405180910390f35b34801561012757600080fd5b50610142600480360381019061013d91906110a6565b610358565b005b34801561015057600080fd5b5061016b600480360381019061016691906110a6565b610379565b005b34801561017957600080fd5b50610194600480360381019061018f91906110a6565b6103fc565b6040516101a19190610fa0565b60405180910390f35b3480156101b657600080fd5b506101bf610466565b6040516101cc919061102d565b60405180910390f35b3480156101e157600080fd5b506101fc60048036038101906101f7919061122c565b61046d565b005b34801561020a57600080fd5b5061022560048036038101906102209190611333565b6105f7565b604051610234939291906113ff565b60405180910390f35b34801561024957600080fd5b50610264600480360381019061025f9190611333565b610855565b6040516102719190610fa0565b60405180910390f35b34801561028657600080fd5b506102a1600480360381019061029c91906110a6565b610890565b005b6102bd60048036038101906102b8919061144b565b6108b1565b005b60007f7965db0b000000000000000000000000000000000000000000000000000000007bffffffffffffffffffffffffffffffffffffffffffffffffffffffff1916827bffffffffffffffffffffffffffffffffffffffffffffffffffffffff191614806103325750610331826109b7565b5b9050919050565b6000806000838152602001908152602001600020600101549050919050565b61036182610339565b61036a81610a21565b6103748383610a35565b505050565b610381610b15565b73ffffffffffffffffffffffffffffffffffffffff168173ffffffffffffffffffffffffffffffffffffffff16146103ee576040517f08c379a00000000000000000000000000000000000000000000000000000000081526004016103e5906114ea565b60405180910390fd5b6103f88282610b1d565b5050565b600080600084815260200190815260200160002060000160008373ffffffffffffffffffffffffffffffffffffffff1673ffffffffffffffffffffffffffffffffffffffff16815260200190815260200160002060009054906101000a900460ff16905092915050565b6000801b81565b6104977fa865e801203154251a7a6c8deb94be73c7242cb4e51b02d75ffa8eacd6a8d2dd336103fc565b6104d6576040517f08c379a00000000000000000000000000000000000000000000000000000000081526004016104cd9061157c565b60405180910390fd5b600015156001826040516104ea91906115d8565b908152602001604051809103902060030160009054906101000a900460ff1615151461054b576040517f08c379a000000000000000000000000000000000000000000000000000000000815260040161054290611661565b60405180910390fd5b60405180608001604052808481526020018381526020018281526020016001151581525060018260405161057f91906115d8565b908152602001604051809103902060008201518160000190816105a29190611897565b5060208201518160010190816105b89190611897565b5060408201518160020190816105ce9190611897565b5060608201518160030160006101000a81548160ff021916908315150217905550905050505050565b6060806060600115156001868660405161061292919061198e565b908152602001604051809103902060030160009054906101000a900460ff16151514610673576040517f08c379a000000000000000000000000000000000000000000000000000000000815260040161066a90611a19565b60405180910390fd5b60006001868660405161068792919061198e565b908152602001604051809103902090508060000181600101826002018280546106af906116b0565b80601f01602080910402602001604051908101604052809291908181526020018280546106db906116b0565b80156107285780601f106106fd57610100808354040283529160200191610728565b820191906000526020600020905b81548152906001019060200180831161070b57829003601f168201915b5050505050925081805461073b906116b0565b80601f0160208091040260200160405190810160405280929190818152602001828054610767906116b0565b80156107b45780601f10610789576101008083540402835291602001916107b4565b820191906000526020600020905b81548152906001019060200180831161079757829003601f168201915b505050505091508080546107c7906116b0565b80601f01602080910402602001604051908101604052809291908181526020018280546107f3906116b0565b80156108405780601f1061081557610100808354040283529160200191610840565b820191906000526020600020905b81548152906001019060200180831161082357829003601f168201915b50505050509050935093509350509250925092565b60006001838360405161086992919061198e565b908152602001604051809103902060030160009054906101000a900460ff16905092915050565b61089982610339565b6108a281610a21565b6108ac8383610b1d565b505050565b6108db7fa865e801203154251a7a6c8deb94be73c7242cb4e51b02d75ffa8eacd6a8d2dd336103fc565b61091a576040517f08c379a00000000000000000000000000000000000000000000000000000000081526004016109119061157c565b60405180910390fd5b600015156109487fa865e801203154251a7a6c8deb94be73c7242cb4e51b02d75ffa8eacd6a8d2dd836103fc565b15151461098a576040517f08c379a000000000000000000000000000000000000000000000000000000000815260040161098190611aab565b60405180910390fd5b6109b47fa865e801203154251a7a6c8deb94be73c7242cb4e51b02d75ffa8eacd6a8d2dd82610a35565b50565b60007f01ffc9a7000000000000000000000000000000000000000000000000000000007bffffffffffffffffffffffffffffffffffffffffffffffffffffffff1916827bffffffffffffffffffffffffffffffffffffffffffffffffffffffff1916149050919050565b610a3281610a2d610b15565b610bfe565b50565b610a3f82826103fc565b610b1157600160008084815260200190815260200160002060000160008373ffffffffffffffffffffffffffffffffffffffff1673ffffffffffffffffffffffffffffffffffffffff16815260200190815260200160002060006101000a81548160ff021916908315150217905550610ab6610b15565b73ffffffffffffffffffffffffffffffffffffffff168173ffffffffffffffffffffffffffffffffffffffff16837f2f8788117e7eff1d82e926ec794901d17c78024a50270940304540a733656f0d60405160405180910390a45b5050565b600033905090565b610b2782826103fc565b15610bfa57600080600084815260200190815260200160002060000160008373ffffffffffffffffffffffffffffffffffffffff1673ffffffffffffffffffffffffffffffffffffffff16815260200190815260200160002060006101000a81548160ff021916908315150217905550610b9f610b15565b73ffffffffffffffffffffffffffffffffffffffff168173ffffffffffffffffffffffffffffffffffffffff16837ff6391f5c32d9c69d2a47ea670b442974b53935d1edc7fd64eb21e047a839171b60405160405180910390a45b5050565b610c0882826103fc565b610c7f57610c1581610c83565b610c238360001c6020610cb0565b604051602001610c34929190611b63565b6040516020818303038152906040526040517f08c379a0000000000000000000000000000000000000000000000000000000008152600401610c769190611b9d565b60405180910390fd5b5050565b6060610ca98273ffffffffffffffffffffffffffffffffffffffff16601460ff16610cb0565b9050919050565b606060006002836002610cc39190611bee565b610ccd9190611c30565b67ffffffffffffffff811115610ce657610ce5611101565b5b6040519080825280601f01601f191660200182016040528015610d185781602001600182028036833780820191505090505b5090507f300000000000000000000000000000000000000000000000000000000000000081600081518110610d5057610d4f611c64565b5b60200101907effffffffffffffffffffffffffffffffffffffffffffffffffffffffffffff1916908160001a9053507f780000000000000000000000000000000000000000000000000000000000000081600181518110610db457610db3611c64565b5b60200101907effffffffffffffffffffffffffffffffffffffffffffffffffffffffffffff1916908160001a90535060006001846002610df49190611bee565b610dfe9190611c30565b90505b6001811115610e9e577f3031323334353637383961626364656600000000000000000000000000000000600f861660108110610e4057610e3f611c64565b5b1a60f81b828281518110610e5757610e56611c64565b5b60200101907effffffffffffffffffffffffffffffffffffffffffffffffffffffffffffff1916908160001a905350600485901c945080610e9790611c93565b9050610e01565b5060008414610ee2576040517f08c379a0000000000000000000000000000000000000000000000000000000008152600401610ed990611d08565b60405180910390fd5b8091505092915050565b6000604051905090565b600080fd5b600080fd5b60007fffffffff0000000000000000000000000000000000000000000000000000000082169050919050565b610f3581610f00565b8114610f4057600080fd5b50565b600081359050610f5281610f2c565b92915050565b600060208284031215610f6e57610f6d610ef6565b5b6000610f7c84828501610f43565b91505092915050565b60008115159050919050565b610f9a81610f85565b82525050565b6000602082019050610fb56000830184610f91565b92915050565b6000819050919050565b610fce81610fbb565b8114610fd957600080fd5b50565b600081359050610feb81610fc5565b92915050565b60006020828403121561100757611006610ef6565b5b600061101584828501610fdc565b91505092915050565b61102781610fbb565b82525050565b6000602082019050611042600083018461101e565b92915050565b600073ffffffffffffffffffffffffffffffffffffffff82169050919050565b600061107382611048565b9050919050565b61108381611068565b811461108e57600080fd5b50565b6000813590506110a08161107a565b92915050565b600080604083850312156110bd576110bc610ef6565b5b60006110cb85828601610fdc565b92505060206110dc85828601611091565b9150509250929050565b600080fd5b600080fd5b6000601f19601f8301169050919050565b7f4e487b7100000000000000000000000000000000000000000000000000000000600052604160045260246000fd5b611139826110f0565b810181811067ffffffffffffffff8211171561115857611157611101565b5b80604052505050565b600061116b610eec565b90506111778282611130565b919050565b600067ffffffffffffffff82111561119757611196611101565b5b6111a0826110f0565b9050602081019050919050565b82818337600083830152505050565b60006111cf6111ca8461117c565b611161565b9050828152602081018484840111156111eb576111ea6110eb565b5b6111f68482856111ad565b509392505050565b600082601f830112611213576112126110e6565b5b81356112238482602086016111bc565b91505092915050565b60008060006060848603121561124557611244610ef6565b5b600084013567ffffffffffffffff81111561126357611262610efb565b5b61126f868287016111fe565b935050602084013567ffffffffffffffff8111156112905761128f610efb565b5b61129c868287016111fe565b925050604084013567ffffffffffffffff8111156112bd576112bc610efb565b5b6112c9868287016111fe565b9150509250925092565b600080fd5b600080fd5b60008083601f8401126112f3576112f26110e6565b5b8235905067ffffffffffffffff8111156113105761130f6112d3565b5b60208301915083600182028301111561132c5761132b6112d8565b5b9250929050565b6000806020838503121561134a57611349610ef6565b5b600083013567ffffffffffffffff81111561136857611367610efb565b5b611374858286016112dd565b92509250509250929050565b600081519050919050565b600082825260208201905092915050565b60005b838110156113ba57808201518184015260208101905061139f565b60008484015250505050565b60006113d182611380565b6113db818561138b565b93506113eb81856020860161139c565b6113f4816110f0565b840191505092915050565b6000606082019050818103600083015261141981866113c6565b9050818103602083015261142d81856113c6565b9050818103604083015261144181846113c6565b9050949350505050565b60006020828403121561146157611460610ef6565b5b600061146f84828501611091565b91505092915050565b7f416363657373436f6e74726f6c3a2063616e206f6e6c792072656e6f756e636560008201527f20726f6c657320666f722073656c660000000000000000000000000000000000602082015250565b60006114d4602f8361138b565b91506114df82611478565b604082019050919050565b60006020820190508181036000830152611503816114c7565b9050919050565b7f6e6f6e2068616920696c207065726d6573736f2064692065736567756972652060008201527f7175657374612069737472757a696f6e65000000000000000000000000000000602082015250565b600061156660318361138b565b91506115718261150a565b604082019050919050565b6000602082019050818103600083015261159581611559565b9050919050565b600081905092915050565b60006115b282611380565b6115bc818561159c565b93506115cc81856020860161139c565b80840191505092915050565b60006115e482846115a7565b915081905092915050565b7f6573697374652067696120756e6f2073747564656e746520636f6e207175657360008201527f7461206d61747269636f6c610000000000000000000000000000000000000000602082015250565b600061164b602c8361138b565b9150611656826115ef565b604082019050919050565b6000602082019050818103600083015261167a8161163e565b9050919050565b7f4e487b7100000000000000000000000000000000000000000000000000000000600052602260045260246000fd5b600060028204905060018216806116c857607f821691505b6020821081036116db576116da611681565b5b50919050565b60008190508160005260206000209050919050565b60006020601f8301049050919050565b600082821b905092915050565b6000600883026117437fffffffffffffffffffffffffffffffffffffffffffffffffffffffffffffffff82611706565b61174d8683611706565b95508019841693508086168417925050509392505050565b6000819050919050565b6000819050919050565b600061179461178f61178a84611765565b61176f565b611765565b9050919050565b6000819050919050565b6117ae83611779565b6117c26117ba8261179b565b848454611713565b825550505050565b600090565b6117d76117ca565b6117e28184846117a5565b505050565b5b81811015611806576117fb6000826117cf565b6001810190506117e8565b5050565b601f82111561184b5761181c816116e1565b611825846116f6565b81016020851015611834578190505b611848611840856116f6565b8301826117e7565b50505b505050565b600082821c905092915050565b600061186e60001984600802611850565b1980831691505092915050565b6000611887838361185d565b9150826002028217905092915050565b6118a082611380565b67ffffffffffffffff8111156118b9576118b8611101565b5b6118c382546116b0565b6118ce82828561180a565b600060209050601f83116001811461190157600084156118ef578287015190505b6118f9858261187b565b865550611961565b601f19841661190f866116e1565b60005b8281101561193757848901518255600182019150602085019450602081019050611912565b868310156119545784890151611950601f89168261185d565b8355505b6001600288020188555050505b505050505050565b6000611975838561159c565b93506119828385846111ad565b82840190509392505050565b600061199b828486611969565b91508190509392505050565b7f6c6f2073747564656e746520636f6e206c61206d61747269636f6c612073706560008201527f6369666963617461206e6f6e2065736973746500000000000000000000000000602082015250565b6000611a0360338361138b565b9150611a0e826119a7565b604082019050919050565b60006020820190508181036000830152611a32816119f6565b9050919050565b7f6c27696e646972697a7a6f207061737361746f206769612720652720756e207260008201527f6574746f72650000000000000000000000000000000000000000000000000000602082015250565b6000611a9560268361138b565b9150611aa082611a39565b604082019050919050565b60006020820190508181036000830152611ac481611a88565b9050919050565b7f416363657373436f6e74726f6c3a206163636f756e7420000000000000000000600082015250565b6000611b0160178361159c565b9150611b0c82611acb565b601782019050919050565b7f206973206d697373696e6720726f6c6520000000000000000000000000000000600082015250565b6000611b4d60118361159c565b9150611b5882611b17565b601182019050919050565b6000611b6e82611af4565b9150611b7a82856115a7565b9150611b8582611b40565b9150611b9182846115a7565b91508190509392505050565b60006020820190508181036000830152611bb781846113c6565b905092915050565b7f4e487b7100000000000000000000000000000000000000000000000000000000600052601160045260246000fd5b6000611bf982611765565b9150611c0483611765565b9250828202611c1281611765565b91508282048414831517611c2957611c28611bbf565b5b5092915050565b6000611c3b82611765565b9150611c4683611765565b9250828201905080821115611c5e57611c5d611bbf565b5b92915050565b7f4e487b7100000000000000000000000000000000000000000000000000000000600052603260045260246000fd5b6000611c9e82611765565b915060008203611cb157611cb0611bbf565b5b600182039050919050565b7f537472696e67733a20686578206c656e67746820696e73756666696369656e74600082015250565b6000611cf260208361138b565b9150611cfd82611cbc565b602082019050919050565b60006020820190508181036000830152611d2181611ce5565b905091905056fea2646970667358221220d816d5cd3b19a5198e09f3a9c7570f2216117e1fdb83a42ac9b8eea97acaf2b964736f6c63430008110033",
  "immutableReferences": {},
  "source": "// SPDX-License-Identifier: GPL-3.0-or-later\r\npragma solidity ^0.8.0;\r\nimport \"@openzeppelin/contracts/access/AccessControl.sol\";\r\n\r\ncontract StudentList is AccessControl{\r\n    bytes32 private constant RETTORE_ROLE = keccak256(\"RETTORE_ROLE\");\r\n\r\n    constructor() public{\r\n        _grantRole(RETTORE_ROLE, msg.sender);\r\n    }\r\n\r\n\r\n    struct student{\r\n        string name;\r\n        string surname;\r\n        string matricola;\r\n        bool isExist;\r\n    }\r\n\r\n    mapping (string => student) students;\r\n\r\n    modifier onlyOwner(){\r\n        require(hasRole(RETTORE_ROLE, msg.sender), \"non hai il permesso di eseguire questa istruzione\");\r\n        _;\r\n    }\r\n\r\n    //TODO cambiare require\r\n    function addStudent(string memory name, string memory surname, string memory matricola) public onlyOwner{\r\n        require (students[matricola].isExist == false, \"esiste gia uno studente con questa matricola\");\r\n        students[matricola] = student(name, surname, matricola, true);\r\n\r\n    }\r\n\r\n    function getStudent(string calldata matricola) external view returns(string memory, string memory, string memory ){\r\n        require (students[matricola].isExist == true, \"lo studente con la matricola specificata non esiste\");\r\n        student storage s = students[matricola];\r\n        return (s.name, s.surname,s.matricola);\r\n    }\r\n\r\n    function existStudent(string calldata matricola) external view returns(bool) {\r\n    \treturn students[matricola].isExist;\r\n    }\r\n\r\n    function setNewRector(address newRector) public payable onlyOwner{\r\n        require(hasRole(RETTORE_ROLE, newRector) == false, \"l'indirizzo passato gia' e' un rettore\");\r\n        _grantRole(RETTORE_ROLE, newRector);\r\n    }\r\n\r\n\r\n}\r\n",
  "sourcePath": "C:\\Users\\c.malafronte\\.vscode\\sicurezza_dei_dati\\firstTrufflePetShop\\progetto\\contracts\\studentList.sol",
  "compiler": {
    "name": "solc",
    "version": "0.8.17+commit.8df45f5f.Emscripten.clang"
  },
  "schemaVersion": "3.4.3",
  "updatedAt": "2023-01-30T19:02:19.996Z",
  "devdoc": {
    "kind": "dev",
    "methods": {
      "getRoleAdmin(bytes32)": {
        "details": "Returns the admin role that controls `role`. See {grantRole} and {revokeRole}. To change a role's admin, use {_setRoleAdmin}."
      },
      "grantRole(bytes32,address)": {
        "details": "Grants `role` to `account`. If `account` had not been already granted `role`, emits a {RoleGranted} event. Requirements: - the caller must have ``role``'s admin role. May emit a {RoleGranted} event."
      },
      "hasRole(bytes32,address)": {
        "details": "Returns `true` if `account` has been granted `role`."
      },
      "renounceRole(bytes32,address)": {
        "details": "Revokes `role` from the calling account. Roles are often managed via {grantRole} and {revokeRole}: this function's purpose is to provide a mechanism for accounts to lose their privileges if they are compromised (such as when a trusted device is misplaced). If the calling account had been revoked `role`, emits a {RoleRevoked} event. Requirements: - the caller must be `account`. May emit a {RoleRevoked} event."
      },
      "revokeRole(bytes32,address)": {
        "details": "Revokes `role` from `account`. If `account` had been granted `role`, emits a {RoleRevoked} event. Requirements: - the caller must have ``role``'s admin role. May emit a {RoleRevoked} event."
      },
      "supportsInterface(bytes4)": {
        "details": "See {IERC165-supportsInterface}."
      }
    },
    "version": 1
  },
  "userdoc": {
    "kind": "user",
    "methods": {},
    "version": 1
  }
}